{
  "_format": "hh-sol-artifact-1",
  "contractName": "DegreeRegistry",
  "sourceName": "contracts/DegreeRegistry.sol",
  "abi": [
    {
      "inputs": [],
      "stateMutability": "nonpayable",
      "type": "constructor"
    },
    {
      "anonymous": false,
      "inputs": [
        {
          "indexed": true,
          "internalType": "string",
          "name": "degreeId",
          "type": "string"
        },
        {
          "indexed": true,
          "internalType": "string",
          "name": "registrationNumber",
          "type": "string"
        },
        {
          "indexed": false,
          "internalType": "string",
          "name": "degreeHash",
          "type": "string"
        },
        {
          "indexed": false,
          "internalType": "address",
          "name": "issuerAddress",
          "type": "address"
        },
        {
          "indexed": false,
          "internalType": "uint256",
          "name": "timestamp",
          "type": "uint256"
        }
      ],
      "name": "DegreeIssued",
      "type": "event"
    },
    {
      "anonymous": false,
      "inputs": [
        {
          "indexed": true,
          "internalType": "string",
          "name": "degreeId",
          "type": "string"
        },
        {
          "indexed": false,
          "internalType": "address",
          "name": "revokedBy",
          "type": "address"
        },
        {
          "indexed": false,
          "internalType": "uint256",
          "name": "timestamp",
          "type": "uint256"
        }
      ],
      "name": "DegreeRevoked",
      "type": "event"
    },
    {
      "anonymous": false,
      "inputs": [
        {
          "indexed": true,
          "internalType": "string",
          "name": "degreeId",
          "type": "string"
        },
        {
          "indexed": false,
          "internalType": "bool",
          "name": "isValid",
          "type": "bool"
        },
        {
          "indexed": false,
          "internalType": "uint256",
          "name": "timestamp",
          "type": "uint256"
        }
      ],
      "name": "DegreeVerified",
      "type": "event"
    },
    {
      "inputs": [
        {
          "internalType": "string",
          "name": "_degreeId",
          "type": "string"
        }
      ],
      "name": "getDegree",
      "outputs": [
        {
          "internalType": "string",
          "name": "",
          "type": "string"
        },
        {
          "internalType": "string",
          "name": "",
          "type": "string"
        },
        {
          "internalType": "string",
          "name": "",
          "type": "string"
        },
        {
          "internalType": "string",
          "name": "",
          "type": "string"
        },
        {
          "internalType": "string",
          "name": "",
          "type": "string"
        },
        {
          "internalType": "string",
          "name": "",
          "type": "string"
        },
        {
          "internalType": "string",
          "name": "",
          "type": "string"
        },
        {
          "internalType": "string",
          "name": "",
          "type": "string"
        },
        {
          "internalType": "address",
          "name": "",
          "type": "address"
        },
        {
          "internalType": "uint256",
          "name": "",
          "type": "uint256"
        },
        {
          "internalType": "bool",
          "name": "",
          "type": "bool"
        },
        {
          "internalType": "bool",
          "name": "",
          "type": "bool"
        }
      ],
      "stateMutability": "view",
      "type": "function"
    },
    {
      "inputs": [
        {
          "internalType": "string",
          "name": "_registrationNumber",
          "type": "string"
        }
      ],
      "name": "getStudentDegrees",
      "outputs": [
        {
          "internalType": "string[]",
          "name": "",
          "type": "string[]"
        }
      ],
      "stateMutability": "view",
      "type": "function"
    },
    {
      "inputs": [
        {
          "internalType": "string",
          "name": "_degreeId",
          "type": "string"
        },
        {
          "internalType": "string",
          "name": "_studentName",
          "type": "string"
        },
        {
          "internalType": "string",
          "name": "_registrationNumber",
          "type": "string"
        },
        {
          "internalType": "string",
          "name": "_department",
          "type": "string"
        },
        {
          "internalType": "string",
          "name": "_program",
          "type": "string"
        },
        {
          "internalType": "string",
          "name": "_cgpa",
          "type": "string"
        },
        {
          "internalType": "string",
          "name": "_graduationYear",
          "type": "string"
        },
        {
          "internalType": "string",
          "name": "_degreeHash",
          "type": "string"
        }
      ],
      "name": "issueDegree",
      "outputs": [],
      "stateMutability": "nonpayable",
      "type": "function"
    },
    {
      "inputs": [],
      "name": "owner",
      "outputs": [
        {
          "internalType": "address",
          "name": "",
          "type": "address"
        }
      ],
      "stateMutability": "view",
      "type": "function"
    },
    {
      "inputs": [
        {
          "internalType": "string",
          "name": "_degreeId",
          "type": "string"
        }
      ],
      "name": "revokeDegree",
      "outputs": [],
      "stateMutability": "nonpayable",
      "type": "function"
    },
    {
      "inputs": [],
      "name": "totalDegrees",
      "outputs": [
        {
          "internalType": "uint256",
          "name": "",
          "type": "uint256"
        }
      ],
      "stateMutability": "view",
      "type": "function"
    },
    {
      "inputs": [
        {
          "internalType": "string",
          "name": "_degreeHash",
          "type": "string"
        }
      ],
      "name": "verifyByHash",
      "outputs": [
        {
          "internalType": "bool",
          "name": "exists",
          "type": "bool"
        },
        {
          "internalType": "bool",
          "name": "isValid",
          "type": "bool"
        },
        {
          "internalType": "bool",
          "name": "isRevoked",
          "type": "bool"
        },
        {
          "internalType": "string",
          "name": "degreeId",
          "type": "string"
        }
      ],
      "stateMutability": "view",
      "type": "function"
    }
  ],
  "bytecode": "0x608060405234801561001057600080fd5b50600080546001600160a01b03191633179055611460806100326000396000f3fe608060405234801561001057600080fd5b506004361061007d5760003560e01c80636581a3de1161005b5780636581a3de146100f05780638da5cb5b14610105578063c42e488f14610130578063de3378c81461015057600080fd5b80631e30c9671461008257806335eee2fb146100b657806354558bfd146100cd575b600080fd5b610095610090366004610f24565b610163565b6040516100ad9c9b9a99989796959493929190610fb1565b60405180910390f35b6100bf60045481565b6040519081526020016100ad565b6100e06100db366004610f24565b6106cb565b6040516100ad9493929190611099565b6101036100fe366004610f24565b6107ea565b005b600054610118906001600160a01b031681565b6040516001600160a01b0390911681526020016100ad565b61014361013e366004610f24565b6109d9565b6040516100ad91906110ce565b61010361015e366004611130565b610ad0565b606080606080606080606080600080600080600060018e6040516101879190611270565b9081526020016040518091039020905060008160000180546101a89061128c565b9050116101f45760405162461bcd60e51b8152602060048201526015602482015274111959dc995948191bd95cc81b9bdd08195e1a5cdd605a1b60448201526064015b60405180910390fd5b60088101546009820154600a8301546001840180549093600286019360038701936004880193600589019360068a019360078b01938b936001600160a01b039093169260ff80831692610100900416908c9061024f9061128c565b80601f016020809104026020016040519081016040528092919081815260200182805461027b9061128c565b80156102c85780601f1061029d576101008083540402835291602001916102c8565b820191906000526020600020905b8154815290600101906020018083116102ab57829003601f168201915b50505050509b508a80546102db9061128c565b80601f01602080910402602001604051908101604052809291908181526020018280546103079061128c565b80156103545780601f1061032957610100808354040283529160200191610354565b820191906000526020600020905b81548152906001019060200180831161033757829003601f168201915b50505050509a508980546103679061128c565b80601f01602080910402602001604051908101604052809291908181526020018280546103939061128c565b80156103e05780601f106103b5576101008083540402835291602001916103e0565b820191906000526020600020905b8154815290600101906020018083116103c357829003601f168201915b505050505099508880546103f39061128c565b80601f016020809104026020016040519081016040528092919081815260200182805461041f9061128c565b801561046c5780601f106104415761010080835404028352916020019161046c565b820191906000526020600020905b81548152906001019060200180831161044f57829003601f168201915b5050505050985087805461047f9061128c565b80601f01602080910402602001604051908101604052809291908181526020018280546104ab9061128c565b80156104f85780601f106104cd576101008083540402835291602001916104f8565b820191906000526020600020905b8154815290600101906020018083116104db57829003601f168201915b5050505050975086805461050b9061128c565b80601f01602080910402602001604051908101604052809291908181526020018280546105379061128c565b80156105845780601f1061055957610100808354040283529160200191610584565b820191906000526020600020905b81548152906001019060200180831161056757829003601f168201915b505050505096508580546105979061128c565b80601f01602080910402602001604051908101604052809291908181526020018280546105c39061128c565b80156106105780601f106105e557610100808354040283529160200191610610565b820191906000526020600020905b8154815290600101906020018083116105f357829003601f168201915b505050505095508480546106239061128c565b80601f016020809104026020016040519081016040528092919081815260200182805461064f9061128c565b801561069c5780601f106106715761010080835404028352916020019161069c565b820191906000526020600020905b81548152906001019060200180831161067f57829003601f168201915b505050505094509c509c509c509c509c509c509c509c509c509c509c509c505091939597999b5091939597999b565b6000806000606060006003866040516106e49190611270565b908152602001604051809103902080546106fd9061128c565b80601f01602080910402602001604051908101604052809291908181526020018280546107299061128c565b80156107765780601f1061074b57610100808354040283529160200191610776565b820191906000526020600020905b81548152906001019060200180831161075957829003601f168201915b5050505050905080516000036107a55750506040805160208101909152600080825293508392508291506107e3565b60006001826040516107b79190611270565b908152604051908190036020019020600a01546001965060ff8082169650610100909104169350909150505b9193509193565b6000546001600160a01b0316331461083f5760405162461bcd60e51b81526020600482015260186024820152774f6e6c79206f776e65722063616e2063616c6c207468697360401b60448201526064016101eb565b60006001826040516108519190611270565b908152604051908190036020019020805461086b9061128c565b9050116108b25760405162461bcd60e51b8152602060048201526015602482015274111959dc995948191bd95cc81b9bdd08195e1a5cdd605a1b60448201526064016101eb565b6001816040516108c29190611270565b908152604051908190036020019020600a015460ff610100909104161561091d5760405162461bcd60e51b815260206004820152600f60248201526e105b1c9958591e481c995d9bdad959608a1b60448201526064016101eb565b6001808260405161092e9190611270565b9081526020016040518091039020600a0160016101000a81548160ff02191690831515021790555060006001826040516109689190611270565b908152604051908190036020018120600a01805492151560ff1990931692909217909155610997908290611270565b60408051918290038220338352426020840152917f3da1f5df176d48acfe72b926b64c77664ae490ef5a77200b5fb5d7636bc2f15c910160405180910390a250565b60606002826040516109eb9190611270565b9081526020016040518091039020805480602002602001604051908101604052809291908181526020016000905b82821015610ac5578382906000526020600020018054610a389061128c565b80601f0160208091040260200160405190810160405280929190818152602001828054610a649061128c565b8015610ab15780601f10610a8657610100808354040283529160200191610ab1565b820191906000526020600020905b815481529060010190602001808311610a9457829003601f168201915b505050505081526020019060010190610a19565b505050509050919050565b6000546001600160a01b03163314610b255760405162461bcd60e51b81526020600482015260186024820152774f6e6c79206f776e65722063616e2063616c6c207468697360401b60448201526064016101eb565b600188604051610b359190611270565b9081526040519081900360200190208054610b4f9061128c565b159050610b9e5760405162461bcd60e51b815260206004820152601860248201527f44656772656520494420616c726561647920657869737473000000000000000060448201526064016101eb565b600381604051610bae9190611270565b90815260200160405180910390208054610bc79061128c565b159050610c0c5760405162461bcd60e51b81526020600482015260136024820152724861736820616c72656164792065786973747360681b60448201526064016101eb565b604051806101800160405280898152602001888152602001878152602001868152602001858152602001848152602001838152602001828152602001336001600160a01b0316815260200142815260200160011515815260200160001515815250600189604051610c7d9190611270565b90815260405190819003602001902081518190610c9a9082611315565b5060208201516001820190610caf9082611315565b5060408201516002820190610cc49082611315565b5060608201516003820190610cd99082611315565b5060808201516004820190610cee9082611315565b5060a08201516005820190610d039082611315565b5060c08201516006820190610d189082611315565b5060e08201516007820190610d2d9082611315565b50610100828101516008830180546001600160a01b0319166001600160a01b039092169190911790556101208301516009830155610140830151600a90920180546101609094015161ffff1990941692151561ff0019169290921792151502919091179055604051600290610da3908890611270565b908152604051602091819003820190208054600181018255600091825291902001610dce8982611315565b5087600382604051610de09190611270565b90815260200160405180910390209081610dfa9190611315565b5060048054906000610e0b836113d5565b919050555085604051610e1e9190611270565b604051809103902088604051610e349190611270565b60405180910390207f150e525d39d1bbfafae0bb438c56f8192f07c5fdc60e5a265b52f349f3ee9b0e833342604051610e6f939291906113fc565b60405180910390a35050505050505050565b634e487b7160e01b600052604160045260246000fd5b600082601f830112610ea857600080fd5b813567ffffffffffffffff80821115610ec357610ec3610e81565b604051601f8301601f19908116603f01168101908282118183101715610eeb57610eeb610e81565b81604052838152866020858801011115610f0457600080fd5b836020870160208301376000602085830101528094505050505092915050565b600060208284031215610f3657600080fd5b813567ffffffffffffffff811115610f4d57600080fd5b610f5984828501610e97565b949350505050565b60005b83811015610f7c578181015183820152602001610f64565b50506000910152565b60008151808452610f9d816020860160208601610f61565b601f01601f19169290920160200192915050565b61018081526000610fc661018083018f610f85565b8281036020840152610fd8818f610f85565b90508281036040840152610fec818e610f85565b90508281036060840152611000818d610f85565b90508281036080840152611014818c610f85565b905082810360a0840152611028818b610f85565b905082810360c084015261103c818a610f85565b905082810360e08401526110508189610f85565b9150506110696101008301876001600160a01b03169052565b8461012083015261107f61014083018515159052565b8215156101608301529d9c50505050505050505050505050565b8415158152831515602082015282151560408201526080606082015260006110c46080830184610f85565b9695505050505050565b6000602080830181845280855180835260408601915060408160051b870101925083870160005b8281101561112357603f19888603018452611111858351610f85565b945092850192908501906001016110f5565b5092979650505050505050565b600080600080600080600080610100898b03121561114d57600080fd5b883567ffffffffffffffff8082111561116557600080fd5b6111718c838d01610e97565b995060208b013591508082111561118757600080fd5b6111938c838d01610e97565b985060408b01359150808211156111a957600080fd5b6111b58c838d01610e97565b975060608b01359150808211156111cb57600080fd5b6111d78c838d01610e97565b965060808b01359150808211156111ed57600080fd5b6111f98c838d01610e97565b955060a08b013591508082111561120f57600080fd5b61121b8c838d01610e97565b945060c08b013591508082111561123157600080fd5b61123d8c838d01610e97565b935060e08b013591508082111561125357600080fd5b506112608b828c01610e97565b9150509295985092959890939650565b60008251611282818460208701610f61565b9190910192915050565b600181811c908216806112a057607f821691505b6020821081036112c057634e487b7160e01b600052602260045260246000fd5b50919050565b601f82111561131057600081815260208120601f850160051c810160208610156112ed5750805b601f850160051c820191505b8181101561130c578281556001016112f9565b5050505b505050565b815167ffffffffffffffff81111561132f5761132f610e81565b6113438161133d845461128c565b846112c6565b602080601f83116001811461137857600084156113605750858301515b600019600386901b1c1916600185901b17855561130c565b600085815260208120601f198616915b828110156113a757888601518255948401946001909101908401611388565b50858210156113c55787850151600019600388901b60f8161c191681555b5050505050600190811b01905550565b6000600182016113f557634e487b7160e01b600052601160045260246000fd5b5060010190565b60608152600061140f6060830186610f85565b6001600160a01b03949094166020830152506040015291905056fea264697066735822122048a6c089bc9950a286dc1650b3d6e2b489b15141ac4d260dc12c54c0e39f6a7664736f6c63430008140033",
  "linkReferences": {},
  "deployedLinkReferences": {}
}